{
  "contractName": "rSFI",
  "abi": [
    {
      "inputs": [
        {
          "internalType": "string",
          "name": "name",
          "type": "string"
        },
        {
          "internalType": "string",
          "name": "symbol",
          "type": "string"
        }
      ],
      "stateMutability": "nonpayable",
      "type": "constructor"
    },
    {
      "anonymous": false,
      "inputs": [
        {
          "indexed": true,
          "internalType": "address",
          "name": "owner",
          "type": "address"
        },
        {
          "indexed": true,
          "internalType": "address",
          "name": "spender",
          "type": "address"
        },
        {
          "indexed": false,
          "internalType": "uint256",
          "name": "value",
          "type": "uint256"
        }
      ],
      "name": "Approval",
      "type": "event"
    },
    {
      "anonymous": false,
      "inputs": [
        {
          "indexed": false,
          "internalType": "address",
          "name": "who",
          "type": "address"
        },
        {
          "indexed": false,
          "internalType": "address",
          "name": "to",
          "type": "address"
        },
        {
          "indexed": false,
          "internalType": "address",
          "name": "token",
          "type": "address"
        },
        {
          "indexed": false,
          "internalType": "uint256",
          "name": "amount",
          "type": "uint256"
        }
      ],
      "name": "ErcSwept",
      "type": "event"
    },
    {
      "anonymous": false,
      "inputs": [
        {
          "indexed": true,
          "internalType": "address",
          "name": "from",
          "type": "address"
        },
        {
          "indexed": true,
          "internalType": "address",
          "name": "to",
          "type": "address"
        },
        {
          "indexed": false,
          "internalType": "uint256",
          "name": "value",
          "type": "uint256"
        }
      ],
      "name": "Transfer",
      "type": "event"
    },
    {
      "inputs": [],
      "name": "MAX_TOKENS",
      "outputs": [
        {
          "internalType": "uint256",
          "name": "",
          "type": "uint256"
        }
      ],
      "stateMutability": "view",
      "type": "function"
    },
    {
      "inputs": [],
      "name": "SFI_minter",
      "outputs": [
        {
          "internalType": "address",
          "name": "",
          "type": "address"
        }
      ],
      "stateMutability": "view",
      "type": "function"
    },
    {
      "inputs": [
        {
          "internalType": "address",
          "name": "owner",
          "type": "address"
        },
        {
          "internalType": "address",
          "name": "spender",
          "type": "address"
        }
      ],
      "name": "allowance",
      "outputs": [
        {
          "internalType": "uint256",
          "name": "",
          "type": "uint256"
        }
      ],
      "stateMutability": "view",
      "type": "function"
    },
    {
      "inputs": [
        {
          "internalType": "address",
          "name": "spender",
          "type": "address"
        },
        {
          "internalType": "uint256",
          "name": "amount",
          "type": "uint256"
        }
      ],
      "name": "approve",
      "outputs": [
        {
          "internalType": "bool",
          "name": "",
          "type": "bool"
        }
      ],
      "stateMutability": "nonpayable",
      "type": "function"
    },
    {
      "inputs": [
        {
          "internalType": "address",
          "name": "account",
          "type": "address"
        }
      ],
      "name": "balanceOf",
      "outputs": [
        {
          "internalType": "uint256",
          "name": "",
          "type": "uint256"
        }
      ],
      "stateMutability": "view",
      "type": "function"
    },
    {
      "inputs": [],
      "name": "decimals",
      "outputs": [
        {
          "internalType": "uint8",
          "name": "",
          "type": "uint8"
        }
      ],
      "stateMutability": "view",
      "type": "function"
    },
    {
      "inputs": [
        {
          "internalType": "address",
          "name": "spender",
          "type": "address"
        },
        {
          "internalType": "uint256",
          "name": "subtractedValue",
          "type": "uint256"
        }
      ],
      "name": "decreaseAllowance",
      "outputs": [
        {
          "internalType": "bool",
          "name": "",
          "type": "bool"
        }
      ],
      "stateMutability": "nonpayable",
      "type": "function"
    },
    {
      "inputs": [],
      "name": "governance",
      "outputs": [
        {
          "internalType": "address",
          "name": "",
          "type": "address"
        }
      ],
      "stateMutability": "view",
      "type": "function"
    },
    {
      "inputs": [
        {
          "internalType": "address",
          "name": "spender",
          "type": "address"
        },
        {
          "internalType": "uint256",
          "name": "addedValue",
          "type": "uint256"
        }
      ],
      "name": "increaseAllowance",
      "outputs": [
        {
          "internalType": "bool",
          "name": "",
          "type": "bool"
        }
      ],
      "stateMutability": "nonpayable",
      "type": "function"
    },
    {
      "inputs": [],
      "name": "name",
      "outputs": [
        {
          "internalType": "string",
          "name": "",
          "type": "string"
        }
      ],
      "stateMutability": "view",
      "type": "function"
    },
    {
      "inputs": [],
      "name": "symbol",
      "outputs": [
        {
          "internalType": "string",
          "name": "",
          "type": "string"
        }
      ],
      "stateMutability": "view",
      "type": "function"
    },
    {
      "inputs": [],
      "name": "totalSupply",
      "outputs": [
        {
          "internalType": "uint256",
          "name": "",
          "type": "uint256"
        }
      ],
      "stateMutability": "view",
      "type": "function"
    },
    {
      "inputs": [
        {
          "internalType": "address",
          "name": "recipient",
          "type": "address"
        },
        {
          "internalType": "uint256",
          "name": "amount",
          "type": "uint256"
        }
      ],
      "name": "transfer",
      "outputs": [
        {
          "internalType": "bool",
          "name": "",
          "type": "bool"
        }
      ],
      "stateMutability": "nonpayable",
      "type": "function"
    },
    {
      "inputs": [
        {
          "internalType": "address",
          "name": "sender",
          "type": "address"
        },
        {
          "internalType": "address",
          "name": "recipient",
          "type": "address"
        },
        {
          "internalType": "uint256",
          "name": "amount",
          "type": "uint256"
        }
      ],
      "name": "transferFrom",
      "outputs": [
        {
          "internalType": "bool",
          "name": "",
          "type": "bool"
        }
      ],
      "stateMutability": "nonpayable",
      "type": "function"
    },
    {
      "inputs": [
        {
          "internalType": "address",
          "name": "to",
          "type": "address"
        },
        {
          "internalType": "uint256",
          "name": "amount",
          "type": "uint256"
        }
      ],
      "name": "mint_SFI",
      "outputs": [],
      "stateMutability": "nonpayable",
      "type": "function"
    },
    {
      "inputs": [
        {
          "internalType": "address",
          "name": "to",
          "type": "address"
        }
      ],
      "name": "set_minter",
      "outputs": [],
      "stateMutability": "nonpayable",
      "type": "function"
    },
    {
      "inputs": [
        {
          "internalType": "address",
          "name": "to",
          "type": "address"
        }
      ],
      "name": "set_governance",
      "outputs": [],
      "stateMutability": "nonpayable",
      "type": "function"
    },
    {
      "inputs": [
        {
          "internalType": "address",
          "name": "_token",
          "type": "address"
        },
        {
          "internalType": "address",
          "name": "_to",
          "type": "address"
        }
      ],
      "name": "erc_sweep",
      "outputs": [],
      "stateMutability": "nonpayable",
      "type": "function"
    }
  ],
  "bytecode": "0x6080604052690347a9586410ecd808806007553480156200001f57600080fd5b5060405162001a9238038062001a92833981810160405260408110156200004557600080fd5b81019080805160405193929190846401000000008211156200006657600080fd5b9083019060208201858111156200007c57600080fd5b82516401000000008111828201881017156200009757600080fd5b82525081516020918201929091019080838360005b83811015620000c6578181015183820152602001620000ac565b50505050905090810190601f168015620000f45780820380516001836020036101000a031916815260200191505b50604052602001805160405193929190846401000000008211156200011857600080fd5b9083019060208201858111156200012e57600080fd5b82516401000000008111828201881017156200014957600080fd5b82525081516020918201929091019080838360005b83811015620001785781810151838201526020016200015e565b50505050905090810190601f168015620001a65780820380516001836020036101000a031916815260200191505b50604052505082518391508290620001c690600390602085019062000208565b508051620001dc90600490602084019062000208565b505060058054601260ff1990911617610100600160a81b031916610100330217905550620002b4915050565b828054600181600116156101000203166002900490600052602060002090601f0160209004810192826200024057600085556200028b565b82601f106200025b57805160ff19168380011785556200028b565b828001600101855582156200028b579182015b828111156200028b5782518255916020019190600101906200026e565b50620002999291506200029d565b5090565b5b808211156200029957600081556001016200029e565b6117ce80620002c46000396000f3fe608060405234801561001057600080fd5b50600436106101365760003560e01c80635aa6e675116100b2578063a5ccf91b11610081578063c21b27c711610066578063c21b27c714610442578063dd62ed3e1461047b578063f47c84c5146104b657610136565b8063a5ccf91b14610401578063a9059cbb1461040957610136565b80635aa6e6751461035c57806370a082311461038d57806395d89b41146103c0578063a457c2d7146103c857610136565b806318160ddd116101095780632b666fcf116100ee5780632b666fcf146102ca578063313ce56714610305578063395093511461032357610136565b806318160ddd1461026d57806323b872dd1461028757610136565b806306fdde031461013b578063070313fa146101b8578063095ea7b3146101ed5780631652e9fc1461023a575b600080fd5b6101436104be565b6040805160208082528351818301528351919283929083019185019080838360005b8381101561017d578181015183820152602001610165565b50505050905090810190601f1680156101aa5780820380516001836020036101000a031916815260200191505b509250505060405180910390f35b6101eb600480360360208110156101ce57600080fd5b503573ffffffffffffffffffffffffffffffffffffffff16610572565b005b6102266004803603604081101561020357600080fd5b5073ffffffffffffffffffffffffffffffffffffffff8135169060200135610649565b604080519115158252519081900360200190f35b6101eb6004803603602081101561025057600080fd5b503573ffffffffffffffffffffffffffffffffffffffff16610666565b610275610738565b60408051918252519081900360200190f35b6102266004803603606081101561029d57600080fd5b5073ffffffffffffffffffffffffffffffffffffffff81358116916020810135909116906040013561073e565b6101eb600480360360408110156102e057600080fd5b5073ffffffffffffffffffffffffffffffffffffffff813581169160200135166107e0565b61030d61098e565b6040805160ff9092168252519081900360200190f35b6102266004803603604081101561033957600080fd5b5073ffffffffffffffffffffffffffffffffffffffff8135169060200135610997565b6103646109f2565b6040805173ffffffffffffffffffffffffffffffffffffffff9092168252519081900360200190f35b610275600480360360208110156103a357600080fd5b503573ffffffffffffffffffffffffffffffffffffffff16610a13565b610143610a3b565b610226600480360360408110156103de57600080fd5b5073ffffffffffffffffffffffffffffffffffffffff8135169060200135610aba565b610364610b2f565b6102266004803603604081101561041f57600080fd5b5073ffffffffffffffffffffffffffffffffffffffff8135169060200135610b4b565b6101eb6004803603604081101561045857600080fd5b5073ffffffffffffffffffffffffffffffffffffffff8135169060200135610b5f565b6102756004803603604081101561049157600080fd5b5073ffffffffffffffffffffffffffffffffffffffff81358116916020013516610cd6565b610275610d0e565b60038054604080516020601f60027fffffffffffffffffffffffffffffffffffffffffffffffffffffffffffffffff6101006001881615020190951694909404938401819004810282018101909252828152606093909290918301828280156105685780601f1061053d57610100808354040283529160200191610568565b820191906000526020600020905b81548152906001019060200180831161054b57829003601f168201915b5050505050905090565b600554610100900473ffffffffffffffffffffffffffffffffffffffff1633146105fd57604080517f08c379a000000000000000000000000000000000000000000000000000000000815260206004820152601260248201527f6d75737420626520676f7665726e616e63650000000000000000000000000000604482015290519081900360640190fd5b6005805473ffffffffffffffffffffffffffffffffffffffff909216610100027fffffffffffffffffffffff0000000000000000000000000000000000000000ff909216919091179055565b600061065d610656610d14565b8484610d18565b50600192915050565b600554610100900473ffffffffffffffffffffffffffffffffffffffff1633146106f157604080517f08c379a000000000000000000000000000000000000000000000000000000000815260206004820152601260248201527f6d75737420626520676f7665726e616e63650000000000000000000000000000604482015290519081900360640190fd5b600680547fffffffffffffffffffffffff00000000000000000000000000000000000000001673ffffffffffffffffffffffffffffffffffffffff92909216919091179055565b60025490565b600061074b848484610e5f565b6107d584610757610d14565b6107d0856040518060600160405280602881526020016116d96028913973ffffffffffffffffffffffffffffffffffffffff8a166000908152600160205260408120906107a2610d14565b73ffffffffffffffffffffffffffffffffffffffff168152602081019190915260400160002054919061102f565b610d18565b5060015b9392505050565b600554610100900473ffffffffffffffffffffffffffffffffffffffff16331461086b57604080517f08c379a000000000000000000000000000000000000000000000000000000000815260206004820152601260248201527f6d75737420626520676f7665726e616e63650000000000000000000000000000604482015290519081900360640190fd5b604080517f70a082310000000000000000000000000000000000000000000000000000000081523060048201529051839160009173ffffffffffffffffffffffffffffffffffffffff8416916370a08231916024808301926020929190829003018186803b1580156108dc57600080fd5b505afa1580156108f0573d6000803e3d6000fd5b505050506040513d602081101561090657600080fd5b5051905061092b73ffffffffffffffffffffffffffffffffffffffff831684836110e0565b6040805133815273ffffffffffffffffffffffffffffffffffffffff80861660208301528616818301526060810183905290517f2c4e64c7c0957a81c0076a0a3f3c7d9f0a5d6158292071c794436f829d12cfb79181900360800190a150505050565b60055460ff1690565b600061065d6109a4610d14565b846107d085600160006109b5610d14565b73ffffffffffffffffffffffffffffffffffffffff908116825260208083019390935260409182016000908120918c168152925290205490611172565b600554610100900473ffffffffffffffffffffffffffffffffffffffff1681565b73ffffffffffffffffffffffffffffffffffffffff1660009081526020819052604090205490565b60048054604080516020601f60027fffffffffffffffffffffffffffffffffffffffffffffffffffffffffffffffff6101006001881615020190951694909404938401819004810282018101909252828152606093909290918301828280156105685780601f1061053d57610100808354040283529160200191610568565b600061065d610ac7610d14565b846107d0856040518060600160405280602581526020016117746025913960016000610af1610d14565b73ffffffffffffffffffffffffffffffffffffffff908116825260208083019390935260409182016000908120918d1681529252902054919061102f565b60065473ffffffffffffffffffffffffffffffffffffffff1681565b600061065d610b58610d14565b8484610e5f565b60065473ffffffffffffffffffffffffffffffffffffffff163314610be557604080517f08c379a000000000000000000000000000000000000000000000000000000000815260206004820152601260248201527f6d757374206265205346495f6d696e7465720000000000000000000000000000604482015290519081900360640190fd5b600754813073ffffffffffffffffffffffffffffffffffffffff166318160ddd6040518163ffffffff1660e01b815260040160206040518083038186803b158015610c2f57600080fd5b505afa158015610c43573d6000803e3d6000fd5b505050506040513d6020811015610c5957600080fd5b50510110610cc857604080517f08c379a000000000000000000000000000000000000000000000000000000000815260206004820181905260248201527f63616e6e6f74206d696e74206d6f7265207468616e204d41585f544f4b454e53604482015290519081900360640190fd5b610cd282826111e6565b5050565b73ffffffffffffffffffffffffffffffffffffffff918216600090815260016020908152604080832093909416825291909152205490565b60075481565b3390565b73ffffffffffffffffffffffffffffffffffffffff8316610d84576040517f08c379a00000000000000000000000000000000000000000000000000000000081526004018080602001828103825260248152602001806117266024913960400191505060405180910390fd5b73ffffffffffffffffffffffffffffffffffffffff8216610df0576040517f08c379a000000000000000000000000000000000000000000000000000000000815260040180806020018281038252602281526020018061166b6022913960400191505060405180910390fd5b73ffffffffffffffffffffffffffffffffffffffff808416600081815260016020908152604080832094871680845294825291829020859055815185815291517f8c5be1e5ebec7d5bd14f71427d1e84f3dd0314c0f7b2291e5b200ac8c7c3b9259281900390910190a3505050565b73ffffffffffffffffffffffffffffffffffffffff8316610ecb576040517f08c379a00000000000000000000000000000000000000000000000000000000081526004018080602001828103825260258152602001806117016025913960400191505060405180910390fd5b73ffffffffffffffffffffffffffffffffffffffff8216610f37576040517f08c379a00000000000000000000000000000000000000000000000000000000081526004018080602001828103825260238152602001806116486023913960400191505060405180910390fd5b610f4283838361116d565b610f8c8160405180606001604052806026815260200161168d6026913973ffffffffffffffffffffffffffffffffffffffff8616600090815260208190526040902054919061102f565b73ffffffffffffffffffffffffffffffffffffffff8085166000908152602081905260408082209390935590841681522054610fc89082611172565b73ffffffffffffffffffffffffffffffffffffffff8084166000818152602081815260409182902094909455805185815290519193928716927fddf252ad1be2c89b69c2b068fc378daa952ba7f163c4a11628f55a4df523b3ef92918290030190a3505050565b600081848411156110d8576040517f08c379a00000000000000000000000000000000000000000000000000000000081526004018080602001828103825283818151815260200191508051906020019080838360005b8381101561109d578181015183820152602001611085565b50505050905090810190601f1680156110ca5780820380516001836020036101000a031916815260200191505b509250505060405180910390fd5b505050900390565b6040805173ffffffffffffffffffffffffffffffffffffffff8416602482015260448082018490528251808303909101815260649091019091526020810180517bffffffffffffffffffffffffffffffffffffffffffffffffffffffff167fa9059cbb0000000000000000000000000000000000000000000000000000000017905261116d908490611317565b505050565b6000828201838110156107d957604080517f08c379a000000000000000000000000000000000000000000000000000000000815260206004820152601b60248201527f536166654d6174683a206164646974696f6e206f766572666c6f770000000000604482015290519081900360640190fd5b73ffffffffffffffffffffffffffffffffffffffff821661126857604080517f08c379a000000000000000000000000000000000000000000000000000000000815260206004820152601f60248201527f45524332303a206d696e7420746f20746865207a65726f206164647265737300604482015290519081900360640190fd5b6112746000838361116d565b6002546112819082611172565b60025573ffffffffffffffffffffffffffffffffffffffff82166000908152602081905260409020546112b49082611172565b73ffffffffffffffffffffffffffffffffffffffff83166000818152602081815260408083209490945583518581529351929391927fddf252ad1be2c89b69c2b068fc378daa952ba7f163c4a11628f55a4df523b3ef9281900390910190a35050565b6060611379826040518060400160405280602081526020017f5361666545524332303a206c6f772d6c6576656c2063616c6c206661696c65648152508573ffffffffffffffffffffffffffffffffffffffff166113ef9092919063ffffffff16565b80519091501561116d5780806020019051602081101561139857600080fd5b505161116d576040517f08c379a000000000000000000000000000000000000000000000000000000000815260040180806020018281038252602a81526020018061174a602a913960400191505060405180910390fd5b60606113fe8484600085611406565b949350505050565b606082471015611461576040517f08c379a00000000000000000000000000000000000000000000000000000000081526004018080602001828103825260268152602001806116b36026913960400191505060405180910390fd5b61146a856115c1565b6114d557604080517f08c379a000000000000000000000000000000000000000000000000000000000815260206004820152601d60248201527f416464726573733a2063616c6c20746f206e6f6e2d636f6e7472616374000000604482015290519081900360640190fd5b600060608673ffffffffffffffffffffffffffffffffffffffff1685876040518082805190602001908083835b6020831061153f57805182527fffffffffffffffffffffffffffffffffffffffffffffffffffffffffffffffe09092019160209182019101611502565b6001836020036101000a03801982511681845116808217855250505050505090500191505060006040518083038185875af1925050503d80600081146115a1576040519150601f19603f3d011682016040523d82523d6000602084013e6115a6565b606091505b50915091506115b68282866115c7565b979650505050505050565b3b151590565b606083156115d65750816107d9565b8251156115e65782518084602001fd5b6040517f08c379a000000000000000000000000000000000000000000000000000000000815260206004820181815284516024840152845185939192839260440191908501908083836000831561109d57818101518382015260200161108556fe45524332303a207472616e7366657220746f20746865207a65726f206164647265737345524332303a20617070726f766520746f20746865207a65726f206164647265737345524332303a207472616e7366657220616d6f756e7420657863656564732062616c616e6365416464726573733a20696e73756666696369656e742062616c616e636520666f722063616c6c45524332303a207472616e7366657220616d6f756e74206578636565647320616c6c6f77616e636545524332303a207472616e736665722066726f6d20746865207a65726f206164647265737345524332303a20617070726f76652066726f6d20746865207a65726f20616464726573735361666545524332303a204552433230206f7065726174696f6e20646964206e6f74207375636365656445524332303a2064656372656173656420616c6c6f77616e63652062656c6f77207a65726fa2646970667358221220fc6b19a65073f9446e1812bcc38bbcbf0772325a14eff23634c264ea5025d17164736f6c63430007040033",
  "immutableReferences": {},
  "source": "// SPDX-License-Identifier: MIT\n\npragma solidity ^0.7.1;\n\nimport \"./lib/ERC20.sol\";\nimport \"./lib/SafeERC20.sol\";\n\ncontract rSFI is ERC20 {\n  using SafeERC20 for IERC20;\n\n  address public governance;\n  address public SFI_minter;\n  uint256 public MAX_TOKENS = 15489020891056530000000;\n\n  constructor (string memory name, string memory symbol) ERC20(name, symbol) {\n    // Initial governance is Saffron Deployer\n    governance = msg.sender;\n  }\n\n  function mint_SFI(address to, uint256 amount) public {\n    require(msg.sender == SFI_minter, \"must be SFI_minter\");\n    require(this.totalSupply() + amount < MAX_TOKENS, \"cannot mint more than MAX_TOKENS\");\n    _mint(to, amount);\n  }\n\n  function set_minter(address to) external {\n    require(msg.sender == governance, \"must be governance\");\n    SFI_minter = to;\n  }\n\n  function set_governance(address to) external {\n    require(msg.sender == governance, \"must be governance\");\n    governance = to;\n  }\n\n  event ErcSwept(address who, address to, address token, uint256 amount);\n  function erc_sweep(address _token, address _to) public {\n    require(msg.sender == governance, \"must be governance\");\n\n    IERC20 tkn = IERC20(_token);\n    uint256 tBal = tkn.balanceOf(address(this));\n    tkn.safeTransfer(_to, tBal);\n\n    emit ErcSwept(msg.sender, _to, _token, tBal);\n  }\n}\n",
  "sourcePath": "/home/joey/Documents/joey/saffron/git/github.com/saffron-finance/saffron/scripts/epoch-1-recovery/rSFI/contracts/rSFI.sol",
  "compiler": {
    "name": "solc",
    "version": "0.7.4+commit.3f05b770.Emscripten.clang"
  },
  "schemaVersion": "3.3.2",
  "updatedAt": "2020-12-06T23:49:40.332Z",
  "devdoc": {
    "kind": "dev",
    "methods": {
      "allowance(address,address)": {
        "details": "See {IERC20-allowance}."
      },
      "approve(address,uint256)": {
        "details": "See {IERC20-approve}. Requirements: - `spender` cannot be the zero address."
      },
      "balanceOf(address)": {
        "details": "See {IERC20-balanceOf}."
      },
      "decimals()": {
        "details": "Returns the number of decimals used to get its user representation. For example, if `decimals` equals `2`, a balance of `505` tokens should be displayed to a user as `5,05` (`505 / 10 ** 2`). Tokens usually opt for a value of 18, imitating the relationship between Ether and Wei. This is the value {ERC20} uses, unless {_setupDecimals} is called. NOTE: This information is only used for _display_ purposes: it in no way affects any of the arithmetic of the contract, including {IERC20-balanceOf} and {IERC20-transfer}."
      },
      "decreaseAllowance(address,uint256)": {
        "details": "Atomically decreases the allowance granted to `spender` by the caller. This is an alternative to {approve} that can be used as a mitigation for problems described in {IERC20-approve}. Emits an {Approval} event indicating the updated allowance. Requirements: - `spender` cannot be the zero address. - `spender` must have allowance for the caller of at least `subtractedValue`."
      },
      "increaseAllowance(address,uint256)": {
        "details": "Atomically increases the allowance granted to `spender` by the caller. This is an alternative to {approve} that can be used as a mitigation for problems described in {IERC20-approve}. Emits an {Approval} event indicating the updated allowance. Requirements: - `spender` cannot be the zero address."
      },
      "name()": {
        "details": "Returns the name of the token."
      },
      "symbol()": {
        "details": "Returns the symbol of the token, usually a shorter version of the name."
      },
      "totalSupply()": {
        "details": "See {IERC20-totalSupply}."
      },
      "transfer(address,uint256)": {
        "details": "See {IERC20-transfer}. Requirements: - `recipient` cannot be the zero address. - the caller must have a balance of at least `amount`."
      },
      "transferFrom(address,address,uint256)": {
        "details": "See {IERC20-transferFrom}. Emits an {Approval} event indicating the updated allowance. This is not required by the EIP. See the note at the beginning of {ERC20}; Requirements: - `sender` and `recipient` cannot be the zero address. - `sender` must have a balance of at least `amount`. - the caller must have allowance for ``sender``'s tokens of at least `amount`."
      }
    },
    "version": 1
  },
  "userdoc": {
    "kind": "user",
    "methods": {},
    "version": 1
  }
}